:020000020000FC
:10000000BAC71895189518951895189518951895B4
:1000100018951895189533C451C4189518951895C6
:100020001895189518950D0A00082008002073658A
:100030006E742C202072656365697665643D000DE1
:100040000A5B485D2D68656C70203E000D0A20201B
:10005000202020202020202000205B696C6C656718
:10006000616C2063686172616374657220656E748F
:10007000657265645D0700204E65770020284D534A
:1000800042206669727374290020284C534220660E
:10009000697273742900202870756C7365206C6F09
:1000A000772900202870756C736520686967682956
:1000B0000020286F666629002020200020636F6ED4
:1000C00066696775726174696F6E207361766564C5
:1000D00000436F6E66696775726174696F6E206C3C
:1000E0006F61646564202D004E6F20636F6E6669DA
:1000F0006775726174696F6E2073746F7265642CBA
:100100002064656661756C7473207573656407009F
:100110005374617475733A2000000053434B3D00E3
:1001200000000000000053533D00000000000000EC
:10013000004175746F3D00000000000042697420AA
:100140004F726465723D004D6F64653D00000000B4
:1001500000000D0A0D0A0000000000000000000071
:10016000000000000000000000000000000000008F
:10017000000000000000000000000000000000007F
:10018000000000000000000000000000000000006F
:1001900000002A2A2A2A2A2A20535049204761741B
:1001A00065776179202D20555341525420746F207A
:1001B000535049204D6173746572204272696467BF
:1001C00065202A2A2A2A2A2A0D0A00000000000097
:1001D00000002A2A2A2A2A2A2056312E31202020BD
:1001E000416E6479204761796E6520323030342069
:1001F000202020474420546563686E696B2C20558D
:100200004B202A2A2A2A2A2A0D0A0D0A0000000059
:100210000000456E7465722068657820656E636FB6
:10022000646564206279746520746F2073656E6400
:1002300020766961205350492C206F7220636F6DC6
:100240006D616E64733A0D0A00000000000000004A
:1002500000005B3F5D202D2053686F77206375722F
:1002600072656E74207374617475730D0A000000FA
:10027000000000000000000000000000000000007E
:10028000000000000000000000000000000000006E
:1002900000005B585D202D20457874656E646564B0
:1002A000206865782073657175656E636520282008
:1002B0006D6178696D756D20313620627974657372
:1002C00020290D0A000000000000000000000000CE
:1002D00000005B515D202D2053434B2066726571F9
:1002E0002028202D2D2D2D53504932583D302D2DB5
:1002F0002D2D2D202020202D2D2D2D5350493258CD
:100300003D312D2D2D2D2D20290D0A00000000003E
:10031000000020202020202020202020202020201D
:10032000202820303D462F342020203932312E36EF
:100330006B487A20202020343D462F322020312E59
:10034000383433324D487A20290D0A00000000006D
:1003500000002020202020202020202020202020DD
:10036000202820313D462F313620203233302E34A4
:100370006B487A20202020353D462F38202020341D
:1003800036302E386B487A20290D0A000000000014
:10039000000020202020202020202020202020209D
:1003A000202820323D462F363420202035372E3667
:1003B0006B487A20202020363D462F3332202031D2
:1003C00031352E326B487A20290D0A0000000000DA
:1003D000000020202020202020202020202020205D
:1003E000202820333D462F313238202032382E3815
:1003F0006B487A20202020373D462F36342020209D
:1004000035372E366B487A20290D0A00000000008F
:1004100000005B535D202D20536C61766520536591
:100420006C6563742070696E206C6576656C20283D
:10043000303D6C6F772C20313D68696768290D0A63
:1004400000000000000000000000000000000000AC
:1004500000005B505D202D204175746F2D746F6717
:10046000676C6520535320636F6E74726F6C202825
:10047000303D6C6F772C20313D686967682C2032E5
:100480003D6F6666290D0A000000000000000000B4
:1004900000005B545D202D20426974205472616E0F
:1004A000736D697373696F6E204F72646572202873
:1004B000303D4D53422066697273742C20313D4C9F
:1004C0005342206669727374290D0A00000000000F
:1004D00000005B4D5D202D2053504920436C6F631D
:1004E0006B204D6F646520202020202020202028B4
:1004F00030203A2031203A2032203A2033290D0A88
:1005000000000000000000000000000000000000EB
:1005100000002020202020204D6F646520204C65A5
:100520006164696E672D4564676520202020205432
:100530007261696C696E672D456467652020204390
:10054000504F4C20435048410D0A0000000000006D
:100550000000202020202020203020202020536157
:100560006D706C6528526973696E6729202020536D
:1005700065747570202846616C6C696E672920204F
:10058000203020202020300D0A0000000000000054
:100590000000202020202020203120202020536512
:1005A0007475702028526973696E67292020205362
:1005B000616D706C652846616C6C696E67292020DE
:1005C000203020202020310D0A0000000000000013
:1005D00000002020202020202032202020205361D5
:1005E0006D706C652846616C6C696E6729202053BC
:1005F000657475702028526973696E672920202000
:10060000203120202020300D0A00000000000000D2
:10061000000020202020202020332020202053658F
:10062000747570202846616C6C696E6729202053B0
:10063000616D706C6528526973696E67292020208E
:10064000203120202020310D0A0000000000000091
:1006500000005B575D202D20577269746520287358
:100660006176652920636F6E66696775726174696A
:100670006F6E20286175746F206C6F6164656420F3
:100680006174207265736574290D0A0D0A000000FB
:1006900000002020283932312E366B487A2020463F
:1006A0006F73632F34202D20332E363836344D4867
:1006B0007A207874616C29000000202028323330C1
:1006C0002E346B487A2020466F73632F3136202DED
:1006D00020332E363836344D487A207874616C29B0
:1006E000000020202835372E366B487A2020466FB0
:1006F00073632F3634202D20332E363836344D4850
:100700007A207874616C2900000020202832382E6D
:10071000386B487A2020466F73632F313238202D92
:1007200020332E363836344D487A207874616C295F
:100730000000202028312E383433324D487A2020D2
:10074000466F73632F32202D20332E363836344DCA
:10075000487A207874616C290000202028343630D3
:100760002E386B487A2020466F73632F38202D2057
:10077000332E363836344D487A207874616C29002F
:1007800000002020283131352E326B487A20204657
:100790006F73632F3332202D20332E363836344D8D
:1007A000487A207874616C29000020202835372E83
:1007B000366B487A2020466F73632F3634202D2005
:1007C000332E363836344D487A207874616C2900DF
:1007D0000000002020202020202020202828282859
:1007E0002820202020202020202020202020202001
:1007F0002020208810101010101010101010101051
:100800001010100404040404040404040410101060
:10081000101010104141414141410101010101010C
:10082000010101010101010101010101010110109A
:1008300010101010424242424242020202020202E0
:10084000020202020202020202020202020210106C
:090850001010200501A0000000B9
:10085A009801232F20BD09B908E90AB906E800BDA5
:10086A0000E000932101009320010093A30100936B
:10087A00A2010895FA93EA934A933A932A931A9310
:10088A000A934FB72CB10091200103950F7700937B
:10089A0020013091210110E0F801E056FF4F20833A
:1008AA004FBF09911991299139914991E991F9918A
:1008BA001895FA93EA932A931A930A932FB70091F9
:1008CA00A2011091A301011769F00091A3010395F8
:1008DA000F770093A30110E0F801EE5DFE4F00814F
:1008EA000CB901C055982FBF099119912991E99125
:1008FA00F991189500912001109121010117D1F366
:10090A000091210103950F770093210110E0F8016E
:10091A00E056FF4F008108952091A20123952F7779
:10092A001091A3012117E1F330E0F901EE5DFE4FCA
:10093A0000832093A201559A08950BE010E088DF06
:10094A000AD301E058D20091A401097F0460009300
:10095A00A401789406E210E052D006E210E04FD0EB
:10096A0002E911E04CD002ED11E049D006E210E0B4
:10097A0046D0B9D201C076D00FE310E040D04CD0B7
:10098A00E2EDF7E010E0E00FF11F319614911474D4
:10099A00112389F7102F1F5399F0195079F0155028
:1009AA00E1F01350B1F01A9581F0125081F01A95C6
:1009BA0091F01350A1F01A9531F013C082D0DCCF18
:1009CA0001E094D0D9CF1ED1D7CFEBD1D5CF04D265
:1009DA00D3CF1FD2D1CF33D2CFCF44D2CDCF58D25B
:1009EA00CBCFE2EDF7E010E0E00FF11F3196049172
:1009FA000771002309F209E210E001D0BDCF14D338
:100A0A00C80104C0FC01049187DF0196FC0104912E
:100A1A000023C1F7E2E00FC307D36CDF802FE2EDBA
:100A2A00F7E090E0E80FF91F319604910270002375
:100A3A0019F08F75082F01C0082F802FE2EDF7E01B
:100A4A0090E0E80FF91F319604910771002311F025
:100A5A00082F62DF082FE2E0EEC2005D0A3308F0D9
:100A6A00095F0895DFD2802F8A3308F087508053B8
:100A7A008295807FD1DFA02FE2EDF7E0B0E0EA0FA8
:100A8A00FB1F3196049104740023B1F0AA3308F0D5
:100A9A00A750A053A82B0A2F64D2A02F0DE210E072
:100AAA00AEDF8A2F82958F70082FD7DF35DFAF70C0
:100ABA000A2FD3DF31DF03C009E510E0A0DFE4E04D
:100ACA00B8C2B0D280E00CC0A2E5B1E0482F50E035
:100ADA0000E410E072D2A00FB11F8D0190DF839560
:100AEA00853190F300E002D0E4E0A3C299D2802FCE
:100AFA0090E0813031F400E20FDF03C00CE410E033
:100B0A007EDFA0E1B1E0492F50E00BE010E055D2C2
:100B1A00A00FB11F8D0173DF192F912F93951150DB
:100B2A0059F01A9549F11A9571F11A9509F449C0C3
:100B3A001A9509F45FC01AC00DB103701EB1212FB6
:100B4A0020FBA0E0A2F9A02B0A2F87DFE5DE813087
:100B5A0069F402E9402E06E0502E4A2F50E008E2DE
:100B6A0010E02BD2400E511E820149DF813031F252
:100B7A0008EB10E044DFC5CF08B30470059505956E
:100B8A006CDFCADEF3CF0091A4010670069565DF1B
:100B9A00C3DE813059F70091A4010670002321F4C5
:100BAA0006E910E02CDFE2CF0091A40106700230C2
:100BBA0021F403EA10E023DFD9CF01EB10E01FDFB5
:100BCA00D5CFADB1A072A595A595A595A595A595E5
:100BDA000A2F43DFA1DE813029F4AA2319F40CE796
:100BEA0010E00DDF813011F6AA2301F209E810E0C6
:100BFA0006DFBCCF0DB10C70059505952EDF8CDE96
:100C0A00E6E015C20FD2E09780E090E013C0FE0143
:100C1A00E80FF91F00810A3330F0FE01E80FF91FCF
:100C2A00008107500083FE01E80FF91F008100537D
:100C3A0000830196803200E0900734F58C0142E08F
:100C4A0050E0DBD1452B11F40AE366DEE5DEFE0156
:100C5A00E80FF91F0083FE01E80FF91F00810D302C
:100C6A0099F002ED17E0FE01E80FF91F208130E04C
:100C7A00020F131FF801319604910474002339F608
:100C8A0009E510E0BCDE8AC08C0142E050E0B5D133
:100C9A00A02F0091A4010670002311F401E0ABD04B
:100CAA000091A4010670023011F400E0A4D080E0A3
:100CBA0090E018C0FE018C01000F111FE00FF11F18
:100CCA0020812295207FFE018C01000F111F0F5FEA
:100CDA001F4FE00FF11F0081022BFE01E80FF91FE1
:100CEA0000830196B0E08A179B0724F30091A401C0
:100CFA000670043029F00091A401067006957BD095
:100D0A0080E090E00BC0FE01E80FF91F008129D1B5
:100D1A00FE01B096E80FF91F00830196B0E08A172A
:100D2A009B078CF30091A4010670002311F401E0E3
:100D3A0062D00091A4010670023011F400E05BD089
:100D4A0080E090E027C00CE410E059DEFE01E80FD5
:100D5A00F91F008102950F7080DEDEDDFE01E80FCB
:100D6A00F91F00810F7079DED7DD0DE210E047DE52
:100D7A00FE01B096E80FF91F008102950F706DDE33
:100D8A00CBDDFE01B096E80FF91F00810F7065DE1A
:100D9A00C3DD0196B0E08A179B07ACF2E096E4E067
:100DAA0048C13ADE0053083098F41DB11C7F1DB9C2
:100DBA00102F13702DB1212B2DB902FB16F4709A46
:100DCA0001C0709807E710E01ADE01E08FDE08958F
:100DDA0009E510E014DE08951FDE0053023038F4EE
:100DEA000AD007E710E00BDE01E080DE089509E58E
:100DFA0010E005DE0895002311F0C29A01C0C298DE
:100E0A00102F1170E4EAF1E010FB008100F9008371
:100E1A00089502DE0053033070F41091A401197F83
:100E2A00000F0670012B0093A40107E710E0E7DD2D
:100E3A0001E05CDE089509E510E0E1DD0895ECDDEE
:100E4A000053023058F4002311F06D9A01C06D98D6
:100E5A0007E710E0D4DD01E049DE089509E510E076
:100E6A00CEDD0895D9DD0053043070F41DB1137F2F
:100E7A001DB9000F000F1DB1102B1DB907E710E0B7
:100E8A00BEDD01E033DE089509E510E0B8DD08951E
:100E9A00F8940DB121E030E0A9018BD00EB122E027
:100EAA0030E0A90186D00091A40123E030E0A90135
:100EBA0080D021E030E0A90170D0102F22E030E08C
:100ECA00A9016BD0602F610F23E030E0A90165D042
:100EDA00060F019524E030E0A9016BD078940CEB61
:100EEA0010E08DDD089521E030E0A90156D0102FE1
:100EFA0022E030E0A90151D0602F610F23E030E0F9
:100F0A00A9014BD0102F160F24E030E0A90145D0DB
:100F1A00010F0F7F0023D9F421E030E0A9013DD071
:100F2A000DB922E030E0A90138D00EB923E030E053
:100F3A00A90133D00093A401E4EAF1E00081017031
:100F4A005ADF01ED10E05BDD01E0D0DD089508EE27
:100F5A0010E055DD08950CE207BBC29A01E50DB910
:100F6A0008950FB9779BFECF0FB108950FE90DBF12
:100F7A0000E00EBFC0E8D0E067D0002309F074D0CB
:100F8A00DCDC8CD08BC0E199FECF08954F5F5F4FB8
:100F9A00FADF4EBB5FBBE09A0895FADF0DB30895FE
:100FAA004F5F5F4F4EBB5FBBF894E29AE19A0FBE68
:100FBA0008950FB6E8DF0DBBF5CF149F102D059FDE
:100FCA00100D049F002D110D089500241124EFE047
:100FDA00001F111F001C111C0416150610F0041A1C
:100FEA00150AEA95AAF7001F111FA001009510958E
:100FFA0008955195419550400895FF27552312F4BD
:10100A00F160F7DF112312F4F09506D0DEDFF0FD70
:10101A0003D0F1FDEECF0895119501951040089582
:10102A005A924A92BA93AA939A938A9308955D80A0
:10103A004C80BB81AA8199818881F0E00FB6F8942F
:10104A00CE0FDF1F0FBE089501E0089520E002D001
:10105A00E9F708952D9301501040202F212B089570
:10106A002591F8DFE9F7089583E598E0FC010591F9
:10107A001491FC013296A591B491FC013496259104
:10108A003491422F432B19F0F901EADF01C0DEDF68
:10109A00069618E08935910748F308950000889567
:0210AA00FECF77
:00000001FF
